{
  "contractName": "ProductAuthenticity",
  "abi": [
    {
      "anonymous": false,
      "inputs": [
        {
          "indexed": true,
          "internalType": "string",
          "name": "productId",
          "type": "string"
        },
        {
          "indexed": false,
          "internalType": "string",
          "name": "name",
          "type": "string"
        },
        {
          "indexed": false,
          "internalType": "string",
          "name": "manufacturer",
          "type": "string"
        },
        {
          "indexed": false,
          "internalType": "uint256",
          "name": "manufactureDate",
          "type": "uint256"
        }
      ],
      "name": "ProductAdded",
      "type": "event"
    },
    {
      "inputs": [
        {
          "internalType": "string",
          "name": "_name",
          "type": "string"
        },
        {
          "internalType": "string",
          "name": "_manufacturer",
          "type": "string"
        },
        {
          "internalType": "uint256",
          "name": "_manufactureDate",
          "type": "uint256"
        },
        {
          "internalType": "string",
          "name": "_productId",
          "type": "string"
        }
      ],
      "name": "addProduct",
      "outputs": [],
      "stateMutability": "nonpayable",
      "type": "function"
    },
    {
      "inputs": [
        {
          "internalType": "string",
          "name": "_productId",
          "type": "string"
        }
      ],
      "name": "getProduct",
      "outputs": [
        {
          "internalType": "string",
          "name": "name",
          "type": "string"
        },
        {
          "internalType": "string",
          "name": "manufacturer",
          "type": "string"
        },
        {
          "internalType": "uint256",
          "name": "manufactureDate",
          "type": "uint256"
        },
        {
          "internalType": "string",
          "name": "productId",
          "type": "string"
        }
      ],
      "stateMutability": "view",
      "type": "function",
      "constant": true
    }
  ],
  "bytecode": "0x608060405234801561001057600080fd5b50610aa7806100206000396000f3fe608060405234801561001057600080fd5b50600436106100365760003560e01c806368111cce1461003b578063f800d3321461006e575b600080fd5b61005560048036038101906100509190610676565b61008a565b6040516100659493929190610760565b60405180910390f35b610088600480360381019061008391906107e6565b610310565b005b60608060006060600080866040516100a291906108dd565b908152602001604051809103902060030180546100be90610923565b905003610100576040517f08c379a00000000000000000000000000000000000000000000000000000000081526004016100f7906109a0565b60405180910390fd5b6000808660405161011191906108dd565b908152602001604051809103902060405180608001604052908160008201805461013a90610923565b80601f016020809104026020016040519081016040528092919081815260200182805461016690610923565b80156101b35780601f10610188576101008083540402835291602001916101b3565b820191906000526020600020905b81548152906001019060200180831161019657829003601f168201915b505050505081526020016001820180546101cc90610923565b80601f01602080910402602001604051908101604052809291908181526020018280546101f890610923565b80156102455780601f1061021a57610100808354040283529160200191610245565b820191906000526020600020905b81548152906001019060200180831161022857829003601f168201915b505050505081526020016002820154815260200160038201805461026890610923565b80601f016020809104026020016040519081016040528092919081815260200182805461029490610923565b80156102e15780601f106102b6576101008083540402835291602001916102e1565b820191906000526020600020905b8154815290600101906020018083116102c457829003601f168201915b505050505081525050905080600001518160200151826040015183606001519450945094509450509193509193565b6000808260405161032191906108dd565b9081526020016040518091039020600301805461033d90610923565b90501461037f576040517f08c379a000000000000000000000000000000000000000000000000000000000815260040161037690610a0c565b60405180910390fd5b6040518060800160405280858152602001848152602001838152602001828152506000826040516103b091906108dd565b908152602001604051809103902060008201518160000190805190602001906103da929190610479565b5060208201518160010190805190602001906103f7929190610479565b5060408201518160020155606082015181600301908051906020019061041e929190610479565b509050508060405161043091906108dd565b60405180910390207f225da28c3fbf5026f4190247be9cfb3606c5ab12c4c486131b1f936bc6da46cf85858560405161046b93929190610a2c565b60405180910390a250505050565b82805461048590610923565b90600052602060002090601f0160209004810192826104a757600085556104ee565b82601f106104c057805160ff19168380011785556104ee565b828001600101855582156104ee579182015b828111156104ed5782518255916020019190600101906104d2565b5b5090506104fb91906104ff565b5090565b5b80821115610518576000816000905550600101610500565b5090565b6000604051905090565b600080fd5b600080fd5b600080fd5b600080fd5b6000601f19601f8301169050919050565b7f4e487b7100000000000000000000000000000000000000000000000000000000600052604160045260246000fd5b6105838261053a565b810181811067ffffffffffffffff821117156105a2576105a161054b565b5b80604052505050565b60006105b561051c565b90506105c1828261057a565b919050565b600067ffffffffffffffff8211156105e1576105e061054b565b5b6105ea8261053a565b9050602081019050919050565b82818337600083830152505050565b6000610619610614846105c6565b6105ab565b90508281526020810184848401111561063557610634610535565b5b6106408482856105f7565b509392505050565b600082601f83011261065d5761065c610530565b5b813561066d848260208601610606565b91505092915050565b60006020828403121561068c5761068b610526565b5b600082013567ffffffffffffffff8111156106aa576106a961052b565b5b6106b684828501610648565b91505092915050565b600081519050919050565b600082825260208201905092915050565b60005b838110156106f95780820151818401526020810190506106de565b83811115610708576000848401525b50505050565b6000610719826106bf565b61072381856106ca565b93506107338185602086016106db565b61073c8161053a565b840191505092915050565b6000819050919050565b61075a81610747565b82525050565b6000608082019050818103600083015261077a818761070e565b9050818103602083015261078e818661070e565b905061079d6040830185610751565b81810360608301526107af818461070e565b905095945050505050565b6107c381610747565b81146107ce57600080fd5b50565b6000813590506107e0816107ba565b92915050565b60008060008060808587031215610800576107ff610526565b5b600085013567ffffffffffffffff81111561081e5761081d61052b565b5b61082a87828801610648565b945050602085013567ffffffffffffffff81111561084b5761084a61052b565b5b61085787828801610648565b9350506040610868878288016107d1565b925050606085013567ffffffffffffffff8111156108895761088861052b565b5b61089587828801610648565b91505092959194509250565b600081905092915050565b60006108b7826106bf565b6108c181856108a1565b93506108d18185602086016106db565b80840191505092915050565b60006108e982846108ac565b915081905092915050565b7f4e487b7100000000000000000000000000000000000000000000000000000000600052602260045260246000fd5b6000600282049050600182168061093b57607f821691505b60208210810361094e5761094d6108f4565b5b50919050565b7f50726f6475637420646f6573206e6f7420657869737400000000000000000000600082015250565b600061098a6016836106ca565b915061099582610954565b602082019050919050565b600060208201905081810360008301526109b98161097d565b9050919050565b7f50726f6475637420616c72656164792065786973747300000000000000000000600082015250565b60006109f66016836106ca565b9150610a01826109c0565b602082019050919050565b60006020820190508181036000830152610a25816109e9565b9050919050565b60006060820190508181036000830152610a46818661070e565b90508181036020830152610a5a818561070e565b9050610a696040830184610751565b94935050505056fea264697066735822122090c249ce3214a2f76dff83fda052b4cdf6ddf2a42d78bb86438c82cdcbbb56b464736f6c634300080d0033",
  "immutableReferences": {},
  "source": "// SPDX-License-Identifier: MIT\npragma solidity ^0.8.13;\n\ncontract ProductAuthenticity {\n    struct Product {\n        string name;\n        string manufacturer;\n        uint256 manufactureDate;\n        string productId;\n    }\n\n    // Mapping t m sn phm n thng tin sn phm\n    mapping(string => Product) private products;\n\n    // Event khi sn phm mi c thm\n    event ProductAdded(string indexed productId, string name, string manufacturer, uint256 manufactureDate);\n\n    // Hm thm sn phm mi\n    function addProduct(\n        string memory _name,\n        string memory _manufacturer,\n        uint256 _manufactureDate,\n        string memory _productId\n    ) public {\n        require(bytes(products[_productId].productId).length == 0, \"Product already exists\");\n        products[_productId] = Product({\n            name: _name,\n            manufacturer: _manufacturer,\n            manufactureDate: _manufactureDate,\n            productId: _productId\n        });\n\n        emit ProductAdded(_productId, _name, _manufacturer, _manufactureDate);\n    }\n\n    // Hm truy vn thng tin sn phm\n    function getProduct(string memory _productId) public view returns (\n        string memory name,\n        string memory manufacturer,\n        uint256 manufactureDate,\n        string memory productId\n    ) {\n        require(bytes(products[_productId].productId).length != 0, \"Product does not exist\");\n\n        Product memory p = products[_productId];\n        return (p.name, p.manufacturer, p.manufactureDate, p.productId);\n    }\n}\n\n",
  "sourcePath": "/contracts/contracts/ProductAuthenticity.sol",
  "compiler": {
    "name": "solc",
    "version": "0.8.13+commit.abaa5c0e.Emscripten.clang"
  },
  "schemaVersion": "3.4.16",
  "updatedAt": "2025-05-06T14:49:10.904Z",
  "networkType": "ethereum",
  "devdoc": {
    "kind": "dev",
    "methods": {},
    "version": 1
  },
  "userdoc": {
    "kind": "user",
    "methods": {},
    "version": 1
  }
}