{
  "contractName": "ProductManager",
  "abi": [
    {
      "anonymous": false,
      "inputs": [
        {
          "indexed": false,
          "internalType": "string",
          "name": "name",
          "type": "string"
        },
        {
          "indexed": false,
          "internalType": "string",
          "name": "manufacturer",
          "type": "string"
        },
        {
          "indexed": false,
          "internalType": "string",
          "name": "productionDate",
          "type": "string"
        },
        {
          "indexed": false,
          "internalType": "string",
          "name": "productId",
          "type": "string"
        }
      ],
      "name": "ProductAdded",
      "type": "event"
    },
    {
      "inputs": [
        {
          "internalType": "uint256",
          "name": "",
          "type": "uint256"
        }
      ],
      "name": "productIds",
      "outputs": [
        {
          "internalType": "string",
          "name": "",
          "type": "string"
        }
      ],
      "stateMutability": "view",
      "type": "function"
    },
    {
      "inputs": [
        {
          "internalType": "string",
          "name": "",
          "type": "string"
        }
      ],
      "name": "products",
      "outputs": [
        {
          "internalType": "string",
          "name": "name",
          "type": "string"
        },
        {
          "internalType": "string",
          "name": "manufacturer",
          "type": "string"
        },
        {
          "internalType": "string",
          "name": "productionDate",
          "type": "string"
        },
        {
          "internalType": "string",
          "name": "productId",
          "type": "string"
        }
      ],
      "stateMutability": "view",
      "type": "function"
    },
    {
      "inputs": [
        {
          "internalType": "string",
          "name": "_name",
          "type": "string"
        },
        {
          "internalType": "string",
          "name": "_manufacturer",
          "type": "string"
        },
        {
          "internalType": "string",
          "name": "_productionDate",
          "type": "string"
        },
        {
          "internalType": "string",
          "name": "_productId",
          "type": "string"
        }
      ],
      "name": "addProduct",
      "outputs": [],
      "stateMutability": "nonpayable",
      "type": "function"
    },
    {
      "inputs": [
        {
          "internalType": "string",
          "name": "_productId",
          "type": "string"
        }
      ],
      "name": "getProduct",
      "outputs": [
        {
          "internalType": "string",
          "name": "",
          "type": "string"
        },
        {
          "internalType": "string",
          "name": "",
          "type": "string"
        },
        {
          "internalType": "string",
          "name": "",
          "type": "string"
        },
        {
          "internalType": "string",
          "name": "",
          "type": "string"
        }
      ],
      "stateMutability": "view",
      "type": "function"
    },
    {
      "inputs": [],
      "name": "getProductCount",
      "outputs": [
        {
          "internalType": "uint256",
          "name": "",
          "type": "uint256"
        }
      ],
      "stateMutability": "view",
      "type": "function"
    }
  ],
  "bytecode": "0x608060405234801561000f575f80fd5b506110958061001d5f395ff3fe608060405234801561000f575f80fd5b5060043610610055575f3560e01c80630186a423146100595780634a348da91461008c57806368111cce146100aa578063cb51bba9146100dd578063fde74e811461010d575b5f80fd5b610073600480360381019061006e91906109dc565b610129565b6040516100839493929190610a9d565b60405180910390f35b610094610384565b6040516100a19190610b14565b60405180910390f35b6100c460048036038101906100bf91906109dc565b610390565b6040516100d49493929190610a9d565b60405180910390f35b6100f760048036038101906100f29190610b57565b61066a565b6040516101049190610b82565b60405180910390f35b61012760048036038101906101229190610ba2565b610710565b005b5f818051602081018201805184825260208301602085012081835280955050505050505f91509050805f01805461015f90610ca3565b80601f016020809104026020016040519081016040528092919081815260200182805461018b90610ca3565b80156101d65780601f106101ad576101008083540402835291602001916101d6565b820191905f5260205f20905b8154815290600101906020018083116101b957829003601f168201915b5050505050908060010180546101eb90610ca3565b80601f016020809104026020016040519081016040528092919081815260200182805461021790610ca3565b80156102625780601f1061023957610100808354040283529160200191610262565b820191905f5260205f20905b81548152906001019060200180831161024557829003601f168201915b50505050509080600201805461027790610ca3565b80601f01602080910402602001604051908101604052809291908181526020018280546102a390610ca3565b80156102ee5780601f106102c5576101008083540402835291602001916102ee565b820191905f5260205f20905b8154815290600101906020018083116102d157829003601f168201915b50505050509080600301805461030390610ca3565b80601f016020809104026020016040519081016040528092919081815260200182805461032f90610ca3565b801561037a5780601f106103515761010080835404028352916020019161037a565b820191905f5260205f20905b81548152906001019060200180831161035d57829003601f168201915b5050505050905084565b5f600180549050905090565b6060806060805f80866040516103a69190610d0d565b90815260200160405180910390206040518060800160405290815f820180546103ce90610ca3565b80601f01602080910402602001604051908101604052809291908181526020018280546103fa90610ca3565b80156104455780601f1061041c57610100808354040283529160200191610445565b820191905f5260205f20905b81548152906001019060200180831161042857829003601f168201915b5050505050815260200160018201805461045e90610ca3565b80601f016020809104026020016040519081016040528092919081815260200182805461048a90610ca3565b80156104d55780601f106104ac576101008083540402835291602001916104d5565b820191905f5260205f20905b8154815290600101906020018083116104b857829003601f168201915b505050505081526020016002820180546104ee90610ca3565b80601f016020809104026020016040519081016040528092919081815260200182805461051a90610ca3565b80156105655780601f1061053c57610100808354040283529160200191610565565b820191905f5260205f20905b81548152906001019060200180831161054857829003601f168201915b5050505050815260200160038201805461057e90610ca3565b80601f01602080910402602001604051908101604052809291908181526020018280546105aa90610ca3565b80156105f55780601f106105cc576101008083540402835291602001916105f5565b820191905f5260205f20905b8154815290600101906020018083116105d857829003601f168201915b50505050508152505090505f81606001515103610647576040517f08c379a000000000000000000000000000000000000000000000000000000000815260040161063e90610d6d565b60405180910390fd5b805f01518160200151826040015183606001519450945094509450509193509193565b60018181548110610679575f80fd5b905f5260205f20015f91509050805461069190610ca3565b80601f01602080910402602001604051908101604052809291908181526020018280546106bd90610ca3565b80156107085780601f106106df57610100808354040283529160200191610708565b820191905f5260205f20905b8154815290600101906020018083116106eb57829003601f168201915b505050505081565b5f80826040516107209190610d0d565b9081526020016040518091039020600301805461073c90610ca3565b90501461077e576040517f08c379a000000000000000000000000000000000000000000000000000000000815260040161077590610dd5565b60405180910390fd5b5f6040518060800160405280868152602001858152602001848152602001838152509050805f836040516107b29190610d0d565b90815260200160405180910390205f820151815f0190816107d39190610f90565b5060208201518160010190816107e99190610f90565b5060408201518160020190816107ff9190610f90565b5060608201518160030190816108159190610f90565b50905050600182908060018154018082558091505060019003905f5260205f20015f90919091909150908161084a9190610f90565b507f07b8bde38d15e94e1d09bdad3c9bdc42ecad2cd21863ef2dd078ba534d18210a858585856040516108809493929190610a9d565b60405180910390a15050505050565b5f604051905090565b5f80fd5b5f80fd5b5f80fd5b5f80fd5b5f601f19601f8301169050919050565b7f4e487b71000000000000000000000000000000000000000000000000000000005f52604160045260245ffd5b6108ee826108a8565b810181811067ffffffffffffffff8211171561090d5761090c6108b8565b5b80604052505050565b5f61091f61088f565b905061092b82826108e5565b919050565b5f67ffffffffffffffff82111561094a576109496108b8565b5b610953826108a8565b9050602081019050919050565b828183375f83830152505050565b5f61098061097b84610930565b610916565b90508281526020810184848401111561099c5761099b6108a4565b5b6109a7848285610960565b509392505050565b5f82601f8301126109c3576109c26108a0565b5b81356109d384826020860161096e565b91505092915050565b5f602082840312156109f1576109f0610898565b5b5f82013567ffffffffffffffff811115610a0e57610a0d61089c565b5b610a1a848285016109af565b91505092915050565b5f81519050919050565b5f82825260208201905092915050565b5f5b83811015610a5a578082015181840152602081019050610a3f565b5f8484015250505050565b5f610a6f82610a23565b610a798185610a2d565b9350610a89818560208601610a3d565b610a92816108a8565b840191505092915050565b5f6080820190508181035f830152610ab58187610a65565b90508181036020830152610ac98186610a65565b90508181036040830152610add8185610a65565b90508181036060830152610af18184610a65565b905095945050505050565b5f819050919050565b610b0e81610afc565b82525050565b5f602082019050610b275f830184610b05565b92915050565b610b3681610afc565b8114610b40575f80fd5b50565b5f81359050610b5181610b2d565b92915050565b5f60208284031215610b6c57610b6b610898565b5b5f610b7984828501610b43565b91505092915050565b5f6020820190508181035f830152610b9a8184610a65565b905092915050565b5f805f8060808587031215610bba57610bb9610898565b5b5f85013567ffffffffffffffff811115610bd757610bd661089c565b5b610be3878288016109af565b945050602085013567ffffffffffffffff811115610c0457610c0361089c565b5b610c10878288016109af565b935050604085013567ffffffffffffffff811115610c3157610c3061089c565b5b610c3d878288016109af565b925050606085013567ffffffffffffffff811115610c5e57610c5d61089c565b5b610c6a878288016109af565b91505092959194509250565b7f4e487b71000000000000000000000000000000000000000000000000000000005f52602260045260245ffd5b5f6002820490506001821680610cba57607f821691505b602082108103610ccd57610ccc610c76565b5b50919050565b5f81905092915050565b5f610ce782610a23565b610cf18185610cd3565b9350610d01818560208601610a3d565b80840191505092915050565b5f610d188284610cdd565b915081905092915050565b7f50726f6475637420646f6573206e6f74206578697374000000000000000000005f82015250565b5f610d57601683610a2d565b9150610d6282610d23565b602082019050919050565b5f6020820190508181035f830152610d8481610d4b565b9050919050565b7f50726f6475637420494420616c726561647920657869737473000000000000005f82015250565b5f610dbf601983610a2d565b9150610dca82610d8b565b602082019050919050565b5f6020820190508181035f830152610dec81610db3565b9050919050565b5f819050815f5260205f209050919050565b5f6020601f8301049050919050565b5f82821b905092915050565b5f60088302610e4f7fffffffffffffffffffffffffffffffffffffffffffffffffffffffffffffffff82610e14565b610e598683610e14565b95508019841693508086168417925050509392505050565b5f819050919050565b5f610e94610e8f610e8a84610afc565b610e71565b610afc565b9050919050565b5f819050919050565b610ead83610e7a565b610ec1610eb982610e9b565b848454610e20565b825550505050565b5f90565b610ed5610ec9565b610ee0818484610ea4565b505050565b5b81811015610f0357610ef85f82610ecd565b600181019050610ee6565b5050565b601f821115610f4857610f1981610df3565b610f2284610e05565b81016020851015610f31578190505b610f45610f3d85610e05565b830182610ee5565b50505b505050565b5f82821c905092915050565b5f610f685f1984600802610f4d565b1980831691505092915050565b5f610f808383610f59565b9150826002028217905092915050565b610f9982610a23565b67ffffffffffffffff811115610fb257610fb16108b8565b5b610fbc8254610ca3565b610fc7828285610f07565b5f60209050601f831160018114610ff8575f8415610fe6578287015190505b610ff08582610f75565b865550611057565b601f19841661100686610df3565b5f5b8281101561102d57848901518255600182019150602085019450602081019050611008565b8683101561104a5784890151611046601f891682610f59565b8355505b6001600288020188555050505b50505050505056fea2646970667358221220d0f41f157ac453d09d155c5313e0f086aacd224e2e71c6fa73733a127502865164736f6c63430008150033",
  "immutableReferences": {},
  "source": "// SPDX-License-Identifier: MIT\npragma solidity ^0.8.21;\ncontract ProductManager {\n    // Cu trc lu tr thng tin sn phm\n    struct Product {\n        string name;\n        string manufacturer;\n        string productionDate;\n        string productId;\n    }\n    \n    // Mapping  lu tr sn phm theo ID\n    mapping(string => Product) public products;\n    \n    // Mng lu tr tt c cc productId\n    string[] public productIds;\n    \n    // S kin khi thm sn phm mi\n    event ProductAdded(\n        string name,\n        string manufacturer,\n        string productionDate,\n        string productId\n    );\n    \n    // Thm sn phm mi\n    function addProduct(\n        string memory _name,\n        string memory _manufacturer,\n        string memory _productionDate,\n        string memory _productId\n    ) public {\n        // Kim tra xem productId  tn ti cha\n        require(bytes(products[_productId].productId).length == 0, \"Product ID already exists\");\n        \n        // To sn phm mi\n        Product memory newProduct = Product({\n            name: _name,\n            manufacturer: _manufacturer,\n            productionDate: _productionDate,\n            productId: _productId\n        });\n        \n        // Lu vo mapping\n        products[_productId] = newProduct;\n        \n        // Thm vo mng productIds\n        productIds.push(_productId);\n        \n        // Kch hot s kin\n        emit ProductAdded(_name, _manufacturer, _productionDate, _productId);\n    }\n    \n    // Ly thng tin sn phm\n    function getProduct(string memory _productId) public view returns (\n        string memory,\n        string memory,\n        string memory,\n        string memory\n    ) {\n        Product memory product = products[_productId];\n        require(bytes(product.productId).length != 0, \"Product does not exist\");\n        \n        return (\n            product.name,\n            product.manufacturer,\n            product.productionDate,\n            product.productId\n        );\n    }\n    \n    // Ly tng s sn phm\n    function getProductCount() public view returns (uint) {\n        return productIds.length;\n    }\n}\n\n",
  "sourcePath": "/app/contracts/ProductAuthenticity.sol",
  "compiler": {
    "name": "solc",
    "version": "0.8.21+commit.d9974bed.Emscripten.clang"
  },
  "schemaVersion": "3.4.16",
  "updatedAt": "2025-04-26T20:13:22.747Z",
  "devdoc": {
    "kind": "dev",
    "methods": {},
    "version": 1
  },
  "userdoc": {
    "kind": "user",
    "methods": {},
    "version": 1
  }
}