{
  "contractName": "ProductAuthenticity",
  "abi": [
    {
      "anonymous": false,
      "inputs": [
        {
          "indexed": true,
          "internalType": "string",
          "name": "productId",
          "type": "string"
        },
        {
          "indexed": false,
          "internalType": "string",
          "name": "name",
          "type": "string"
        },
        {
          "indexed": false,
          "internalType": "string",
          "name": "manufacturer",
          "type": "string"
        },
        {
          "indexed": false,
          "internalType": "uint256",
          "name": "manufactureDate",
          "type": "uint256"
        }
      ],
      "name": "ProductAdded",
      "type": "event"
    },
    {
      "inputs": [
        {
          "internalType": "string",
          "name": "_name",
          "type": "string"
        },
        {
          "internalType": "string",
          "name": "_manufacturer",
          "type": "string"
        },
        {
          "internalType": "uint256",
          "name": "_manufactureDate",
          "type": "uint256"
        },
        {
          "internalType": "string",
          "name": "_productId",
          "type": "string"
        }
      ],
      "name": "addProduct",
      "outputs": [],
      "stateMutability": "nonpayable",
      "type": "function"
    },
    {
      "inputs": [
        {
          "internalType": "string",
          "name": "_productId",
          "type": "string"
        }
      ],
      "name": "getProduct",
      "outputs": [
        {
          "internalType": "string",
          "name": "name",
          "type": "string"
        },
        {
          "internalType": "string",
          "name": "manufacturer",
          "type": "string"
        },
        {
          "internalType": "uint256",
          "name": "manufactureDate",
          "type": "uint256"
        },
        {
          "internalType": "string",
          "name": "productId",
          "type": "string"
        }
      ],
      "stateMutability": "view",
      "type": "function"
    }
  ],
  "bytecode": "0x608060405234801561000f575f80fd5b50610c148061001d5f395ff3fe608060405234801561000f575f80fd5b5060043610610034575f3560e01c806368111cce14610038578063f800d3321461006b575b5f80fd5b610052600480360381019061004d919061059f565b610087565b6040516100629493929190610678565b60405180910390f35b610085600480360381019061008091906106fa565b610302565b005b6060805f60605f808660405161009d91906107ec565b908152602001604051809103902060030180546100b99061082f565b9050036100fb576040517f08c379a00000000000000000000000000000000000000000000000000000000081526004016100f2906108a9565b60405180910390fd5b5f808660405161010b91906107ec565b90815260200160405180910390206040518060800160405290815f820180546101339061082f565b80601f016020809104026020016040519081016040528092919081815260200182805461015f9061082f565b80156101aa5780601f10610181576101008083540402835291602001916101aa565b820191905f5260205f20905b81548152906001019060200180831161018d57829003601f168201915b505050505081526020016001820180546101c39061082f565b80601f01602080910402602001604051908101604052809291908181526020018280546101ef9061082f565b801561023a5780601f106102115761010080835404028352916020019161023a565b820191905f5260205f20905b81548152906001019060200180831161021d57829003601f168201915b505050505081526020016002820154815260200160038201805461025d9061082f565b80601f01602080910402602001604051908101604052809291908181526020018280546102899061082f565b80156102d45780601f106102ab576101008083540402835291602001916102d4565b820191905f5260205f20905b8154815290600101906020018083116102b757829003601f168201915b5050505050815250509050805f01518160200151826040015183606001519450945094509450509193509193565b5f808260405161031291906107ec565b9081526020016040518091039020600301805461032e9061082f565b905014610370576040517f08c379a000000000000000000000000000000000000000000000000000000000815260040161036790610911565b60405180910390fd5b6040518060800160405280858152602001848152602001838152602001828152505f826040516103a091906107ec565b90815260200160405180910390205f820151815f0190816103c19190610acc565b5060208201518160010190816103d79190610acc565b506040820151816002015560608201518160030190816103f79190610acc565b509050508060405161040991906107ec565b60405180910390207f225da28c3fbf5026f4190247be9cfb3606c5ab12c4c486131b1f936bc6da46cf85858560405161044493929190610b9b565b60405180910390a250505050565b5f604051905090565b5f80fd5b5f80fd5b5f80fd5b5f80fd5b5f601f19601f8301169050919050565b7f4e487b71000000000000000000000000000000000000000000000000000000005f52604160045260245ffd5b6104b18261046b565b810181811067ffffffffffffffff821117156104d0576104cf61047b565b5b80604052505050565b5f6104e2610452565b90506104ee82826104a8565b919050565b5f67ffffffffffffffff82111561050d5761050c61047b565b5b6105168261046b565b9050602081019050919050565b828183375f83830152505050565b5f61054361053e846104f3565b6104d9565b90508281526020810184848401111561055f5761055e610467565b5b61056a848285610523565b509392505050565b5f82601f83011261058657610585610463565b5b8135610596848260208601610531565b91505092915050565b5f602082840312156105b4576105b361045b565b5b5f82013567ffffffffffffffff8111156105d1576105d061045f565b5b6105dd84828501610572565b91505092915050565b5f81519050919050565b5f82825260208201905092915050565b5f5b8381101561061d578082015181840152602081019050610602565b5f8484015250505050565b5f610632826105e6565b61063c81856105f0565b935061064c818560208601610600565b6106558161046b565b840191505092915050565b5f819050919050565b61067281610660565b82525050565b5f6080820190508181035f8301526106908187610628565b905081810360208301526106a48186610628565b90506106b36040830185610669565b81810360608301526106c58184610628565b905095945050505050565b6106d981610660565b81146106e3575f80fd5b50565b5f813590506106f4816106d0565b92915050565b5f805f80608085870312156107125761071161045b565b5b5f85013567ffffffffffffffff81111561072f5761072e61045f565b5b61073b87828801610572565b945050602085013567ffffffffffffffff81111561075c5761075b61045f565b5b61076887828801610572565b9350506040610779878288016106e6565b925050606085013567ffffffffffffffff81111561079a5761079961045f565b5b6107a687828801610572565b91505092959194509250565b5f81905092915050565b5f6107c6826105e6565b6107d081856107b2565b93506107e0818560208601610600565b80840191505092915050565b5f6107f782846107bc565b915081905092915050565b7f4e487b71000000000000000000000000000000000000000000000000000000005f52602260045260245ffd5b5f600282049050600182168061084657607f821691505b60208210810361085957610858610802565b5b50919050565b7f50726f6475637420646f6573206e6f74206578697374000000000000000000005f82015250565b5f6108936016836105f0565b915061089e8261085f565b602082019050919050565b5f6020820190508181035f8301526108c081610887565b9050919050565b7f50726f6475637420616c726561647920657869737473000000000000000000005f82015250565b5f6108fb6016836105f0565b9150610906826108c7565b602082019050919050565b5f6020820190508181035f830152610928816108ef565b9050919050565b5f819050815f5260205f209050919050565b5f6020601f8301049050919050565b5f82821b905092915050565b5f6008830261098b7fffffffffffffffffffffffffffffffffffffffffffffffffffffffffffffffff82610950565b6109958683610950565b95508019841693508086168417925050509392505050565b5f819050919050565b5f6109d06109cb6109c684610660565b6109ad565b610660565b9050919050565b5f819050919050565b6109e9836109b6565b6109fd6109f5826109d7565b84845461095c565b825550505050565b5f90565b610a11610a05565b610a1c8184846109e0565b505050565b5b81811015610a3f57610a345f82610a09565b600181019050610a22565b5050565b601f821115610a8457610a558161092f565b610a5e84610941565b81016020851015610a6d578190505b610a81610a7985610941565b830182610a21565b50505b505050565b5f82821c905092915050565b5f610aa45f1984600802610a89565b1980831691505092915050565b5f610abc8383610a95565b9150826002028217905092915050565b610ad5826105e6565b67ffffffffffffffff811115610aee57610aed61047b565b5b610af8825461082f565b610b03828285610a43565b5f60209050601f831160018114610b34575f8415610b22578287015190505b610b2c8582610ab1565b865550610b93565b601f198416610b428661092f565b5f5b82811015610b6957848901518255600182019150602085019450602081019050610b44565b86831015610b865784890151610b82601f891682610a95565b8355505b6001600288020188555050505b505050505050565b5f6060820190508181035f830152610bb38186610628565b90508181036020830152610bc78185610628565b9050610bd66040830184610669565b94935050505056fea26469706673582212200b3d4b1639357ee80af696d1f559f8f5544380abdc843086773934dc76a3d97164736f6c63430008150033",
  "immutableReferences": {},
  "source": "// SPDX-License-Identifier: MIT\npragma solidity ^0.8.21;\n\ncontract ProductAuthenticity {\n    struct Product {\n        string name;\n        string manufacturer;\n        uint256 manufactureDate;\n        string productId;\n    }\n\n    // Mapping t m sn phm n thng tin sn phm\n    mapping(string => Product) private products;\n\n    // Event khi sn phm mi c thm\n    event ProductAdded(string indexed productId, string name, string manufacturer, uint256 manufactureDate);\n\n    // Hm thm sn phm mi\n    function addProduct(\n        string memory _name,\n        string memory _manufacturer,\n        uint256 _manufactureDate,\n        string memory _productId\n    ) public {\n        require(bytes(products[_productId].productId).length == 0, \"Product already exists\");\n        products[_productId] = Product({\n            name: _name,\n            manufacturer: _manufacturer,\n            manufactureDate: _manufactureDate,\n            productId: _productId\n        });\n\n        emit ProductAdded(_productId, _name, _manufacturer, _manufactureDate);\n    }\n\n    // Hm truy vn thng tin sn phm\n    function getProduct(string memory _productId) public view returns (\n        string memory name,\n        string memory manufacturer,\n        uint256 manufactureDate,\n        string memory productId\n    ) {\n        require(bytes(products[_productId].productId).length != 0, \"Product does not exist\");\n\n        Product memory p = products[_productId];\n        return (p.name, p.manufacturer, p.manufactureDate, p.productId);\n    }\n}\n\n",
  "sourcePath": "/home/hqviet/Projects/verification-system/contracts/contracts/ProductAuthenticity.sol",
  "compiler": {
    "name": "solc",
    "version": "0.8.21+commit.d9974bed.Emscripten.clang"
  },
  "schemaVersion": "3.4.16",
  "updatedAt": "2025-04-26T18:51:44.722Z",
  "devdoc": {
    "kind": "dev",
    "methods": {},
    "version": 1
  },
  "userdoc": {
    "kind": "user",
    "methods": {},
    "version": 1
  }
}